{
  "_format": "hh-sol-artifact-1",
  "contractName": "LandSale",
  "sourceName": "contracts/LandSale.sol",
  "abi": [
    {
      "inputs": [
        {
          "internalType": "address",
          "name": "_nftAddress",
          "type": "address"
        },
        {
          "internalType": "address",
          "name": "_tokenAddress",
          "type": "address"
        }
      ],
      "stateMutability": "nonpayable",
      "type": "constructor"
    },
    {
      "anonymous": false,
      "inputs": [
        {
          "indexed": false,
          "internalType": "address",
          "name": "_admin",
          "type": "address"
        },
        {
          "indexed": false,
          "internalType": "bool",
          "name": "_enabled",
          "type": "bool"
        }
      ],
      "name": "AdminAccessSet",
      "type": "event"
    },
    {
      "anonymous": false,
      "inputs": [
        {
          "indexed": true,
          "internalType": "address",
          "name": "previousOwner",
          "type": "address"
        },
        {
          "indexed": true,
          "internalType": "address",
          "name": "newOwner",
          "type": "address"
        }
      ],
      "name": "OwnershipTransferred",
      "type": "event"
    },
    {
      "anonymous": false,
      "inputs": [
        {
          "indexed": false,
          "internalType": "uint256",
          "name": "_nftId",
          "type": "uint256"
        },
        {
          "indexed": false,
          "internalType": "uint256",
          "name": "_price",
          "type": "uint256"
        }
      ],
      "name": "PriceUpdated",
      "type": "event"
    },
    {
      "anonymous": false,
      "inputs": [
        {
          "indexed": false,
          "internalType": "uint256",
          "name": "_nftId",
          "type": "uint256"
        },
        {
          "indexed": false,
          "internalType": "uint256",
          "name": "_price",
          "type": "uint256"
        },
        {
          "indexed": false,
          "internalType": "address",
          "name": "_owner",
          "type": "address"
        },
        {
          "indexed": false,
          "internalType": "uint256",
          "name": "_timestamp",
          "type": "uint256"
        }
      ],
      "name": "SaleAdded",
      "type": "event"
    },
    {
      "anonymous": false,
      "inputs": [
        {
          "indexed": false,
          "internalType": "uint256",
          "name": "_nftId",
          "type": "uint256"
        },
        {
          "indexed": false,
          "internalType": "uint256",
          "name": "_price",
          "type": "uint256"
        },
        {
          "indexed": false,
          "internalType": "address",
          "name": "_owner",
          "type": "address"
        },
        {
          "indexed": false,
          "internalType": "address",
          "name": "_cancelledBy",
          "type": "address"
        },
        {
          "indexed": false,
          "internalType": "uint256",
          "name": "_timestamp",
          "type": "uint256"
        }
      ],
      "name": "SaleCancelled",
      "type": "event"
    },
    {
      "anonymous": false,
      "inputs": [
        {
          "indexed": false,
          "internalType": "uint256",
          "name": "_nftId",
          "type": "uint256"
        },
        {
          "indexed": false,
          "internalType": "address",
          "name": "_seller",
          "type": "address"
        },
        {
          "indexed": false,
          "internalType": "address",
          "name": "_buyer",
          "type": "address"
        },
        {
          "indexed": false,
          "internalType": "uint256",
          "name": "_price",
          "type": "uint256"
        },
        {
          "indexed": false,
          "internalType": "uint256",
          "name": "_timestamp",
          "type": "uint256"
        }
      ],
      "name": "Sold",
      "type": "event"
    },
    {
      "inputs": [],
      "name": "NFT",
      "outputs": [
        {
          "internalType": "contract IERC721",
          "name": "",
          "type": "address"
        }
      ],
      "stateMutability": "view",
      "type": "function"
    },
    {
      "inputs": [],
      "name": "TOKEN",
      "outputs": [
        {
          "internalType": "contract IERC20",
          "name": "",
          "type": "address"
        }
      ],
      "stateMutability": "view",
      "type": "function"
    },
    {
      "inputs": [
        {
          "internalType": "uint256",
          "name": "",
          "type": "uint256"
        }
      ],
      "name": "_nftSales",
      "outputs": [
        {
          "internalType": "uint256",
          "name": "nftId",
          "type": "uint256"
        },
        {
          "internalType": "uint256",
          "name": "price",
          "type": "uint256"
        },
        {
          "internalType": "address",
          "name": "owner",
          "type": "address"
        },
        {
          "internalType": "bool",
          "name": "isActive",
          "type": "bool"
        }
      ],
      "stateMutability": "view",
      "type": "function"
    },
    {
      "inputs": [
        {
          "internalType": "uint256[]",
          "name": "nftIds",
          "type": "uint256[]"
        }
      ],
      "name": "batchPurchaseProperty",
      "outputs": [],
      "stateMutability": "nonpayable",
      "type": "function"
    },
    {
      "inputs": [
        {
          "internalType": "uint256[]",
          "name": "nftIds",
          "type": "uint256[]"
        },
        {
          "internalType": "uint256[]",
          "name": "prices",
          "type": "uint256[]"
        }
      ],
      "name": "batchSellProperty",
      "outputs": [],
      "stateMutability": "nonpayable",
      "type": "function"
    },
    {
      "inputs": [
        {
          "internalType": "uint256",
          "name": "nftId",
          "type": "uint256"
        }
      ],
      "name": "cancelSale",
      "outputs": [],
      "stateMutability": "nonpayable",
      "type": "function"
    },
    {
      "inputs": [
        {
          "internalType": "uint256",
          "name": "nftId",
          "type": "uint256"
        }
      ],
      "name": "getSale",
      "outputs": [
        {
          "components": [
            {
              "internalType": "uint256",
              "name": "nftId",
              "type": "uint256"
            },
            {
              "internalType": "uint256",
              "name": "price",
              "type": "uint256"
            },
            {
              "internalType": "address",
              "name": "owner",
              "type": "address"
            },
            {
              "internalType": "bool",
              "name": "isActive",
              "type": "bool"
            }
          ],
          "internalType": "struct LandSale.Sale",
          "name": "",
          "type": "tuple"
        }
      ],
      "stateMutability": "view",
      "type": "function"
    },
    {
      "inputs": [
        {
          "internalType": "address",
          "name": "admin",
          "type": "address"
        }
      ],
      "name": "isAdmin",
      "outputs": [
        {
          "internalType": "bool",
          "name": "",
          "type": "bool"
        }
      ],
      "stateMutability": "view",
      "type": "function"
    },
    {
      "inputs": [],
      "name": "isEnabled",
      "outputs": [
        {
          "internalType": "bool",
          "name": "",
          "type": "bool"
        }
      ],
      "stateMutability": "view",
      "type": "function"
    },
    {
      "inputs": [],
      "name": "owner",
      "outputs": [
        {
          "internalType": "address",
          "name": "",
          "type": "address"
        }
      ],
      "stateMutability": "view",
      "type": "function"
    },
    {
      "inputs": [],
      "name": "publicSale",
      "outputs": [
        {
          "internalType": "bool",
          "name": "",
          "type": "bool"
        }
      ],
      "stateMutability": "view",
      "type": "function"
    },
    {
      "inputs": [
        {
          "internalType": "uint256",
          "name": "nftId",
          "type": "uint256"
        }
      ],
      "name": "purchaseProperty",
      "outputs": [],
      "stateMutability": "nonpayable",
      "type": "function"
    },
    {
      "inputs": [],
      "name": "renounceOwnership",
      "outputs": [],
      "stateMutability": "nonpayable",
      "type": "function"
    },
    {
      "inputs": [
        {
          "internalType": "uint256",
          "name": "nftId",
          "type": "uint256"
        },
        {
          "internalType": "uint256",
          "name": "price",
          "type": "uint256"
        }
      ],
      "name": "sellProperty",
      "outputs": [],
      "stateMutability": "nonpayable",
      "type": "function"
    },
    {
      "inputs": [
        {
          "internalType": "address",
          "name": "admin",
          "type": "address"
        },
        {
          "internalType": "bool",
          "name": "enabled",
          "type": "bool"
        }
      ],
      "name": "setAdmin",
      "outputs": [],
      "stateMutability": "nonpayable",
      "type": "function"
    },
    {
      "inputs": [
        {
          "internalType": "bool",
          "name": "_isEnabled",
          "type": "bool"
        }
      ],
      "name": "setEnabled",
      "outputs": [],
      "stateMutability": "nonpayable",
      "type": "function"
    },
    {
      "inputs": [
        {
          "internalType": "address",
          "name": "newOwner",
          "type": "address"
        }
      ],
      "name": "transferOwnership",
      "outputs": [],
      "stateMutability": "nonpayable",
      "type": "function"
    },
    {
      "inputs": [
        {
          "internalType": "uint256",
          "name": "nftId",
          "type": "uint256"
        },
        {
          "internalType": "uint256",
          "name": "newPrice",
          "type": "uint256"
        }
      ],
      "name": "updatePrice",
      "outputs": [],
      "stateMutability": "nonpayable",
      "type": "function"
    }
  ],
  "bytecode": "0x60806040523480156200001157600080fd5b50604051620032853803806200328583398181016040528101906200003791906200027f565b6000620000496200024d60201b60201c565b9050806000806101000a81548173ffffffffffffffffffffffffffffffffffffffff021916908373ffffffffffffffffffffffffffffffffffffffff1602179055508073ffffffffffffffffffffffffffffffffffffffff16600073ffffffffffffffffffffffffffffffffffffffff167f8be0079c531659141344cd1fd0a4f28419497f9722a3daafe3b4186f6b6457e060405160405180910390a350620001138273ffffffffffffffffffffffffffffffffffffffff166200025560201b6200210a1760201c565b62000155576040517f08c379a00000000000000000000000000000000000000000000000000000000081526004016200014c9062000366565b60405180910390fd5b620001818173ffffffffffffffffffffffffffffffffffffffff166200025560201b6200210a1760201c565b620001c3576040517f08c379a0000000000000000000000000000000000000000000000000000000008152600401620001ba9062000344565b60405180910390fd5b81600360006101000a81548173ffffffffffffffffffffffffffffffffffffffff021916908373ffffffffffffffffffffffffffffffffffffffff16021790555080600260006101000a81548173ffffffffffffffffffffffffffffffffffffffff021916908373ffffffffffffffffffffffffffffffffffffffff1602179055505050620003e7565b600033905090565b600080823b905060008111915050919050565b6000815190506200027981620003cd565b92915050565b600080604083850312156200029357600080fd5b6000620002a38582860162000268565b9250506020620002b68582860162000268565b9150509250929050565b6000620002cf60208362000388565b91507f5f746f6b656e41646472657373206d757374206265206120636f6e74726163746000830152602082019050919050565b600062000311601e8362000388565b91507f5f6e667441646472657373206d757374206265206120636f6e747261637400006000830152602082019050919050565b600060208201905081810360008301526200035f81620002c0565b9050919050565b60006020820190508181036000830152620003818162000302565b9050919050565b600082825260208201905092915050565b6000620003a682620003ad565b9050919050565b600073ffffffffffffffffffffffffffffffffffffffff82169050919050565b620003d88162000399565b8114620003e457600080fd5b50565b612e8e80620003f76000396000f3fe608060405234801561001057600080fd5b50600436106101165760003560e01c806382367b2d116100a2578063bd94b00511610071578063bd94b005146102aa578063d8f6d596146102c6578063ebe1c149146102f6578063ed46a8cf14610312578063f2fde38b1461032e57610116565b806382367b2d1461021f57806382bfefc81461023b5780638da5cb5b146102595780639538d8e91461027757610116565b80636aa633b6116100e95780636aa633b6146101a1578063715018a6146101bf57806379d9c439146101c95780637c0b8de2146101e55780637ddbd58f1461020357610116565b806324d7806c1461011b578063328d8f721461014b57806333bc1c5c146101675780634b0bddd214610185575b600080fd5b61013560048036038101906101309190612301565b61034a565b6040516101429190612976565b60405180910390f35b6101656004803603810190610160919061243c565b6103a0565b005b61016f61046c565b60405161017c9190612976565b60405180910390f35b61019f600480360381019061019a9190612353565b61047f565b005b6101a96105e0565b6040516101b69190612976565b60405180910390f35b6101c76105f3565b005b6101e360048036038101906101de919061248e565b610760565b005b6101ed610a80565b6040516101fa91906129ac565b60405180910390f35b61021d6004803603810190610218919061238f565b610aa6565b005b610239600480360381019061023491906124e0565b610ced565b005b610243610f40565b6040516102509190612991565b60405180910390f35b610261610f66565b60405161026e91906128c4565b60405180910390f35b610291600480360381019061028c919061248e565b610f8f565b6040516102a19493929190612c51565b60405180910390f35b6102c460048036038101906102bf919061248e565b610fec565b005b6102e060048036038101906102db919061248e565b6112e0565b6040516102ed9190612b07565b60405180910390f35b610310600480360381019061030b91906123d0565b6113f5565b005b61032c600480360381019061032791906124e0565b61191d565b005b61034860048036038101906103439190612301565b611f18565b005b6000600160008373ffffffffffffffffffffffffffffffffffffffff1673ffffffffffffffffffffffffffffffffffffffff16815260200190815260200160002060009054906101000a900460ff169050919050565b6103a861211d565b73ffffffffffffffffffffffffffffffffffffffff166103c6610f66565b73ffffffffffffffffffffffffffffffffffffffff161461044f576040517f08c379a00000000000000000000000000000000000000000000000000000000081526004018080602001828103825260208152602001807f4f776e61626c653a2063616c6c6572206973206e6f7420746865206f776e657281525060200191505060405180910390fd5b80600360146101000a81548160ff02191690831515021790555050565b600360159054906101000a900460ff1681565b61048761211d565b73ffffffffffffffffffffffffffffffffffffffff166104a5610f66565b73ffffffffffffffffffffffffffffffffffffffff161461052e576040517f08c379a00000000000000000000000000000000000000000000000000000000081526004018080602001828103825260208152602001807f4f776e61626c653a2063616c6c6572206973206e6f7420746865206f776e657281525060200191505060405180910390fd5b80600160008473ffffffffffffffffffffffffffffffffffffffff1673ffffffffffffffffffffffffffffffffffffffff16815260200190815260200160002060006101000a81548160ff0219169083151502179055507fe529461c8529abc0e0fe7c5ee361f74fe22e0b7574df1fc0b7558a282091fb788282604051808373ffffffffffffffffffffffffffffffffffffffff16815260200182151581526020019250505060405180910390a15050565b600360149054906101000a900460ff1681565b6105fb61211d565b73ffffffffffffffffffffffffffffffffffffffff16610619610f66565b73ffffffffffffffffffffffffffffffffffffffff16146106a2576040517f08c379a00000000000000000000000000000000000000000000000000000000081526004018080602001828103825260208152602001807f4f776e61626c653a2063616c6c6572206973206e6f7420746865206f776e657281525060200191505060405180910390fd5b600073ffffffffffffffffffffffffffffffffffffffff1660008054906101000a900473ffffffffffffffffffffffffffffffffffffffff1673ffffffffffffffffffffffffffffffffffffffff167f8be0079c531659141344cd1fd0a4f28419497f9722a3daafe3b4186f6b6457e060405160405180910390a360008060006101000a81548173ffffffffffffffffffffffffffffffffffffffff021916908373ffffffffffffffffffffffffffffffffffffffff160217905550565b600360149054906101000a900460ff166107af576040517f08c379a00000000000000000000000000000000000000000000000000000000081526004016107a690612a67565b60405180910390fd5b6004600082815260200190815260200160002060020160149054906101000a900460ff16610812576040517f08c379a000000000000000000000000000000000000000000000000000000000815260040161080990612a87565b60405180910390fd5b60006004600083815260200190815260200160002060020160009054906101000a900473ffffffffffffffffffffffffffffffffffffffff169050600061085761211d565b9050600060046000858152602001908152602001600020600101549050816004600086815260200190815260200160002060020160006101000a81548173ffffffffffffffffffffffffffffffffffffffff021916908373ffffffffffffffffffffffffffffffffffffffff16021790555060006004600086815260200190815260200160002060020160146101000a81548160ff021916908315150217905550600260009054906101000a900473ffffffffffffffffffffffffffffffffffffffff1673ffffffffffffffffffffffffffffffffffffffff166323b872dd8385846040518463ffffffff1660e01b81526004016109579392919061293f565b602060405180830381600087803b15801561097157600080fd5b505af1158015610985573d6000803e3d6000fd5b505050506040513d601f19601f820116820180604052508101906109a99190612465565b50600360009054906101000a900473ffffffffffffffffffffffffffffffffffffffff1673ffffffffffffffffffffffffffffffffffffffff166323b872dd3084876040518463ffffffff1660e01b8152600401610a099392919061293f565b600060405180830381600087803b158015610a2357600080fd5b505af1158015610a37573d6000803e3d6000fd5b505050507fa70b1a854695e7921b122988e216d3a6cd10ed799017c67b1ff231967e6bf56d8484848442604051610a72959493929190612b3d565b60405180910390a150505050565b600360009054906101000a900473ffffffffffffffffffffffffffffffffffffffff1681565b600360149054906101000a900460ff16610af5576040517f08c379a0000000000000000000000000000000000000000000000000000000008152600401610aec90612a67565b60405180910390fd5b6000805b8251811015610bb6576000838281518110610b1057fe5b602002602001015190506004600082815260200190815260200160002060020160149054906101000a900460ff16610b7d576040517f08c379a0000000000000000000000000000000000000000000000000000000008152600401610b7490612a87565b60405180910390fd5b610ba660046000838152602001908152602001600020600101548461212590919063ffffffff16565b9250508080600101915050610af9565b5080600260009054906101000a900473ffffffffffffffffffffffffffffffffffffffff1673ffffffffffffffffffffffffffffffffffffffff1663dd62ed3e610bfe61211d565b306040518363ffffffff1660e01b8152600401610c1c9291906128df565b60206040518083038186803b158015610c3457600080fd5b505afa158015610c48573d6000803e3d6000fd5b505050506040513d601f19601f82011682018060405250810190610c6c91906124b7565b1015610cad576040517f08c379a0000000000000000000000000000000000000000000000000000000008152600401610ca490612a07565b60405180910390fd5b60005b8251811015610ce8576000838281518110610cc757fe5b60200260200101519050610cda81610760565b508080600101915050610cb0565b505050565b60016000610cf961211d565b73ffffffffffffffffffffffffffffffffffffffff1673ffffffffffffffffffffffffffffffffffffffff16815260200190815260200160002060009054906101000a900460ff1680610d855750610d4f610f66565b73ffffffffffffffffffffffffffffffffffffffff16610d6d61211d565b73ffffffffffffffffffffffffffffffffffffffff16145b610dda576040517f08c379a0000000000000000000000000000000000000000000000000000000008152600401808060200182810382526021815260200180612e386021913960400191505060405180910390fd5b610de261211d565b73ffffffffffffffffffffffffffffffffffffffff166004600084815260200190815260200160002060020160009054906101000a900473ffffffffffffffffffffffffffffffffffffffff1673ffffffffffffffffffffffffffffffffffffffff1614610e85576040517f08c379a0000000000000000000000000000000000000000000000000000000008152600401610e7c90612aa7565b60405180910390fd5b6004600083815260200190815260200160002060020160149054906101000a900460ff16610ee8576040517f08c379a0000000000000000000000000000000000000000000000000000000008152600401610edf90612a87565b60405180910390fd5b8060046000848152602001908152602001600020600101819055507f945c1c4e99aa89f648fbfe3df471b916f719e16d960fcec0737d4d56bd6968388282604051610f34929190612b90565b60405180910390a15050565b600260009054906101000a900473ffffffffffffffffffffffffffffffffffffffff1681565b60008060009054906101000a900473ffffffffffffffffffffffffffffffffffffffff16905090565b60046020528060005260406000206000915090508060000154908060010154908060020160009054906101000a900473ffffffffffffffffffffffffffffffffffffffff16908060020160149054906101000a900460ff16905084565b610ff461211d565b73ffffffffffffffffffffffffffffffffffffffff166004600083815260200190815260200160002060020160009054906101000a900473ffffffffffffffffffffffffffffffffffffffff1673ffffffffffffffffffffffffffffffffffffffff16148061106f575061106e61106961211d565b61034a565b5b806110b3575061107d610f66565b73ffffffffffffffffffffffffffffffffffffffff1661109b61211d565b73ffffffffffffffffffffffffffffffffffffffff16145b6110f2576040517f08c379a00000000000000000000000000000000000000000000000000000000081526004016110e990612a47565b60405180910390fd5b6004600082815260200190815260200160002060020160149054906101000a900460ff16611155576040517f08c379a000000000000000000000000000000000000000000000000000000000815260040161114c906129e7565b60405180910390fd5b60006004600083815260200190815260200160002060020160146101000a81548160ff021916908315150217905550600360009054906101000a900473ffffffffffffffffffffffffffffffffffffffff1673ffffffffffffffffffffffffffffffffffffffff166323b872dd306004600085815260200190815260200160002060020160009054906101000a900473ffffffffffffffffffffffffffffffffffffffff16846040518463ffffffff1660e01b81526004016112199392919061293f565b600060405180830381600087803b15801561123357600080fd5b505af1158015611247573d6000803e3d6000fd5b505050507fb7cfc6175ad793ef8751b7deb32917c22f292c84ecd4ca57beabef3ed6bc8bdb8160046000848152602001908152602001600020600101546004600085815260200190815260200160002060020160009054906101000a900473ffffffffffffffffffffffffffffffffffffffff166112c361211d565b426040516112d5959493929190612bfe565b60405180910390a150565b6112e86121ad565b6004600083815260200190815260200160002060020160149054906101000a900460ff1661134b576040517f08c379a0000000000000000000000000000000000000000000000000000000008152600401611342906129e7565b60405180910390fd5b6004600083815260200190815260200160002060405180608001604052908160008201548152602001600182015481526020016002820160009054906101000a900473ffffffffffffffffffffffffffffffffffffffff1673ffffffffffffffffffffffffffffffffffffffff1673ffffffffffffffffffffffffffffffffffffffff1681526020016002820160149054906101000a900460ff1615151515815250509050919050565b6001600061140161211d565b73ffffffffffffffffffffffffffffffffffffffff1673ffffffffffffffffffffffffffffffffffffffff16815260200190815260200160002060009054906101000a900460ff168061148d5750611457610f66565b73ffffffffffffffffffffffffffffffffffffffff1661147561211d565b73ffffffffffffffffffffffffffffffffffffffff16145b6114e2576040517f08c379a0000000000000000000000000000000000000000000000000000000008152600401808060200182810382526021815260200180612e386021913960400191505060405180910390fd5b8051825114611526576040517f08c379a000000000000000000000000000000000000000000000000000000000815260040161151d90612ac7565b60405180910390fd5b60005b82518110156118ce5761153a61211d565b73ffffffffffffffffffffffffffffffffffffffff16600360009054906101000a900473ffffffffffffffffffffffffffffffffffffffff1673ffffffffffffffffffffffffffffffffffffffff16636352211e85848151811061159a57fe5b60200260200101516040518263ffffffff1660e01b81526004016115be9190612b22565b60206040518083038186803b1580156115d657600080fd5b505afa1580156115ea573d6000803e3d6000fd5b505050506040513d601f19601f8201168201806040525081019061160e919061232a565b73ffffffffffffffffffffffffffffffffffffffff1614611664576040517f08c379a000000000000000000000000000000000000000000000000000000000815260040161165b90612a27565b60405180910390fd5b3073ffffffffffffffffffffffffffffffffffffffff16600360009054906101000a900473ffffffffffffffffffffffffffffffffffffffff1673ffffffffffffffffffffffffffffffffffffffff1663081812fc8584815181106116c557fe5b60200260200101516040518263ffffffff1660e01b81526004016116e99190612b22565b60206040518083038186803b15801561170157600080fd5b505afa158015611715573d6000803e3d6000fd5b505050506040513d601f19601f82011682018060405250810190611739919061232a565b73ffffffffffffffffffffffffffffffffffffffff16148061180b5750600360009054906101000a900473ffffffffffffffffffffffffffffffffffffffff1673ffffffffffffffffffffffffffffffffffffffff1663e985e9c561179c61211d565b306040518363ffffffff1660e01b81526004016117ba9291906128df565b60206040518083038186803b1580156117d257600080fd5b505afa1580156117e6573d6000803e3d6000fd5b505050506040513d601f19601f8201168201806040525081019061180a9190612465565b5b61184a576040517f08c379a000000000000000000000000000000000000000000000000000000000815260040161184190612ae7565b60405180910390fd5b6004600084838151811061185a57fe5b6020026020010151815260200190815260200160002060020160149054906101000a900460ff16156118c1576040517f08c379a00000000000000000000000000000000000000000000000000000000081526004016118b8906129c7565b60405180910390fd5b8080600101915050611529565b5060005b82518110156119185761190b8382815181106118ea57fe5b60200260200101518383815181106118fe57fe5b602002602001015161191d565b80806001019150506118d2565b505050565b6001600061192961211d565b73ffffffffffffffffffffffffffffffffffffffff1673ffffffffffffffffffffffffffffffffffffffff16815260200190815260200160002060009054906101000a900460ff16806119b5575061197f610f66565b73ffffffffffffffffffffffffffffffffffffffff1661199d61211d565b73ffffffffffffffffffffffffffffffffffffffff16145b611a0a576040517f08c379a0000000000000000000000000000000000000000000000000000000008152600401808060200182810382526021815260200180612e386021913960400191505060405180910390fd5b611a1261211d565b73ffffffffffffffffffffffffffffffffffffffff16600360009054906101000a900473ffffffffffffffffffffffffffffffffffffffff1673ffffffffffffffffffffffffffffffffffffffff16636352211e846040518263ffffffff1660e01b8152600401611a839190612b22565b60206040518083038186803b158015611a9b57600080fd5b505afa158015611aaf573d6000803e3d6000fd5b505050506040513d601f19601f82011682018060405250810190611ad3919061232a565b73ffffffffffffffffffffffffffffffffffffffff1614611b29576040517f08c379a0000000000000000000000000000000000000000000000000000000008152600401611b2090612a27565b60405180910390fd5b3073ffffffffffffffffffffffffffffffffffffffff16600360009054906101000a900473ffffffffffffffffffffffffffffffffffffffff1673ffffffffffffffffffffffffffffffffffffffff1663081812fc846040518263ffffffff1660e01b8152600401611b9b9190612b22565b60206040518083038186803b158015611bb357600080fd5b505afa158015611bc7573d6000803e3d6000fd5b505050506040513d601f19601f82011682018060405250810190611beb919061232a565b73ffffffffffffffffffffffffffffffffffffffff161480611cbd5750600360009054906101000a900473ffffffffffffffffffffffffffffffffffffffff1673ffffffffffffffffffffffffffffffffffffffff1663e985e9c5611c4e61211d565b306040518363ffffffff1660e01b8152600401611c6c9291906128df565b60206040518083038186803b158015611c8457600080fd5b505afa158015611c98573d6000803e3d6000fd5b505050506040513d601f19601f82011682018060405250810190611cbc9190612465565b5b611cfc576040517f08c379a0000000000000000000000000000000000000000000000000000000008152600401611cf390612ae7565b60405180910390fd5b6004600083815260200190815260200160002060020160149054906101000a900460ff1615611d60576040517f08c379a0000000000000000000000000000000000000000000000000000000008152600401611d57906129c7565b60405180910390fd5b60006040518060800160405280848152602001838152602001611d8161211d565b73ffffffffffffffffffffffffffffffffffffffff1681526020016001151581525090508060046000858152602001908152602001600020600082015181600001556020820151816001015560408201518160020160006101000a81548173ffffffffffffffffffffffffffffffffffffffff021916908373ffffffffffffffffffffffffffffffffffffffff16021790555060608201518160020160146101000a81548160ff021916908315150217905550905050600360009054906101000a900473ffffffffffffffffffffffffffffffffffffffff1673ffffffffffffffffffffffffffffffffffffffff166323b872dd611e7d61211d565b30866040518463ffffffff1660e01b8152600401611e9d93929190612908565b600060405180830381600087803b158015611eb757600080fd5b505af1158015611ecb573d6000803e3d6000fd5b505050507ff59a8e57322d4e7e909b00d06e23797136706d0039f6df9bc2eed74a829b94898383611efa61211d565b42604051611f0b9493929190612bb9565b60405180910390a1505050565b611f2061211d565b73ffffffffffffffffffffffffffffffffffffffff16611f3e610f66565b73ffffffffffffffffffffffffffffffffffffffff1614611fc7576040517f08c379a00000000000000000000000000000000000000000000000000000000081526004018080602001828103825260208152602001807f4f776e61626c653a2063616c6c6572206973206e6f7420746865206f776e657281525060200191505060405180910390fd5b600073ffffffffffffffffffffffffffffffffffffffff168173ffffffffffffffffffffffffffffffffffffffff16141561204d576040517f08c379a0000000000000000000000000000000000000000000000000000000008152600401808060200182810382526026815260200180612e126026913960400191505060405180910390fd5b8073ffffffffffffffffffffffffffffffffffffffff1660008054906101000a900473ffffffffffffffffffffffffffffffffffffffff1673ffffffffffffffffffffffffffffffffffffffff167f8be0079c531659141344cd1fd0a4f28419497f9722a3daafe3b4186f6b6457e060405160405180910390a3806000806101000a81548173ffffffffffffffffffffffffffffffffffffffff021916908373ffffffffffffffffffffffffffffffffffffffff16021790555050565b600080823b905060008111915050919050565b600033905090565b6000808284019050838110156121a3576040517f08c379a000000000000000000000000000000000000000000000000000000000815260040180806020018281038252601b8152602001807f536166654d6174683a206164646974696f6e206f766572666c6f77000000000081525060200191505060405180910390fd5b8091505092915050565b60405180608001604052806000815260200160008152602001600073ffffffffffffffffffffffffffffffffffffffff1681526020016000151581525090565b60006122006121fb84612cc7565b612c96565b9050808382526020820190508285602086028201111561221f57600080fd5b60005b8581101561224f578161223588826122d7565b845260208401935060208301925050600181019050612222565b5050509392505050565b60008135905061226881612dcc565b92915050565b60008151905061227d81612dcc565b92915050565b600082601f83011261229457600080fd5b81356122a48482602086016121ed565b91505092915050565b6000813590506122bc81612de3565b92915050565b6000815190506122d181612de3565b92915050565b6000813590506122e681612dfa565b92915050565b6000815190506122fb81612dfa565b92915050565b60006020828403121561231357600080fd5b600061232184828501612259565b91505092915050565b60006020828403121561233c57600080fd5b600061234a8482850161226e565b91505092915050565b6000806040838503121561236657600080fd5b600061237485828601612259565b9250506020612385858286016122ad565b9150509250929050565b6000602082840312156123a157600080fd5b600082013567ffffffffffffffff8111156123bb57600080fd5b6123c784828501612283565b91505092915050565b600080604083850312156123e357600080fd5b600083013567ffffffffffffffff8111156123fd57600080fd5b61240985828601612283565b925050602083013567ffffffffffffffff81111561242657600080fd5b61243285828601612283565b9150509250929050565b60006020828403121561244e57600080fd5b600061245c848285016122ad565b91505092915050565b60006020828403121561247757600080fd5b6000612485848285016122c2565b91505092915050565b6000602082840312156124a057600080fd5b60006124ae848285016122d7565b91505092915050565b6000602082840312156124c957600080fd5b60006124d7848285016122ec565b91505092915050565b600080604083850312156124f357600080fd5b6000612501858286016122d7565b9250506020612512858286016122d7565b9150509250929050565b61252581612d4c565b82525050565b61253481612d04565b82525050565b61254381612d04565b82525050565b61255281612d16565b82525050565b61256181612d16565b82525050565b61257081612d5e565b82525050565b61257f81612d82565b82525050565b6000612592601283612cf3565b91507f4e46542053616c652069732061637469766500000000000000000000000000006000830152602082019050919050565b60006125d2601683612cf3565b91507f4e4654206973206e6f7420757020666f722073616c65000000000000000000006000830152602082019050919050565b6000612612602583612cf3565b91507f4772616e7420746f6b656e20617070726f76616c20746f2053616c6520436f6e60008301527f74726163740000000000000000000000000000000000000000000000000000006020830152604082019050919050565b6000612678601a83612cf3565b91507f4f6e6c79206f776e6572206f66204e46542063616e2073656c6c0000000000006000830152602082019050919050565b60006126b8602083612cf3565b91507f4f6e6c79206f776e65722f61646d696e2063616e2063616e63656c2053616c656000830152602082019050919050565b60006126f8601383612cf3565b91507f53616c65206973206e6f7420656e61626c6564000000000000000000000000006000830152602082019050919050565b6000612738601383612cf3565b91507f4e4654206973206e6f7420666f722073616c65000000000000000000000000006000830152602082019050919050565b6000612778601c83612cf3565b91507f4f6e6c79206f776e6572206f66204e46542063616e20557064617465000000006000830152602082019050919050565b60006127b8600f83612cf3565b91507f4c656e677468206d69736d6174636800000000000000000000000000000000006000830152602082019050919050565b60006127f8602383612cf3565b91507f4772616e74204e465420617070726f76616c20746f2053616c6520436f6e747260008301527f61637400000000000000000000000000000000000000000000000000000000006020830152604082019050919050565b60808201600082015161286760008501826128a6565b50602082015161287a60208501826128a6565b50604082015161288d604085018261252b565b5060608201516128a06060850182612549565b50505050565b6128af81612d42565b82525050565b6128be81612d42565b82525050565b60006020820190506128d9600083018461253a565b92915050565b60006040820190506128f4600083018561251c565b612901602083018461253a565b9392505050565b600060608201905061291d600083018661251c565b61292a602083018561253a565b61293760408301846128b5565b949350505050565b6000606082019050612954600083018661253a565b612961602083018561253a565b61296e60408301846128b5565b949350505050565b600060208201905061298b6000830184612558565b92915050565b60006020820190506129a66000830184612567565b92915050565b60006020820190506129c16000830184612576565b92915050565b600060208201905081810360008301526129e081612585565b9050919050565b60006020820190508181036000830152612a00816125c5565b9050919050565b60006020820190508181036000830152612a2081612605565b9050919050565b60006020820190508181036000830152612a408161266b565b9050919050565b60006020820190508181036000830152612a60816126ab565b9050919050565b60006020820190508181036000830152612a80816126eb565b9050919050565b60006020820190508181036000830152612aa08161272b565b9050919050565b60006020820190508181036000830152612ac08161276b565b9050919050565b60006020820190508181036000830152612ae0816127ab565b9050919050565b60006020820190508181036000830152612b00816127eb565b9050919050565b6000608082019050612b1c6000830184612851565b92915050565b6000602082019050612b3760008301846128b5565b92915050565b600060a082019050612b5260008301886128b5565b612b5f602083018761253a565b612b6c604083018661253a565b612b7960608301856128b5565b612b8660808301846128b5565b9695505050505050565b6000604082019050612ba560008301856128b5565b612bb260208301846128b5565b9392505050565b6000608082019050612bce60008301876128b5565b612bdb60208301866128b5565b612be8604083018561251c565b612bf560608301846128b5565b95945050505050565b600060a082019050612c1360008301886128b5565b612c2060208301876128b5565b612c2d604083018661253a565b612c3a606083018561251c565b612c4760808301846128b5565b9695505050505050565b6000608082019050612c6660008301876128b5565b612c7360208301866128b5565b612c80604083018561253a565b612c8d6060830184612558565b95945050505050565b6000604051905081810181811067ffffffffffffffff82111715612cbd57612cbc612dca565b5b8060405250919050565b600067ffffffffffffffff821115612ce257612ce1612dca565b5b602082029050602081019050919050565b600082825260208201905092915050565b6000612d0f82612d22565b9050919050565b60008115159050919050565b600073ffffffffffffffffffffffffffffffffffffffff82169050919050565b6000819050919050565b6000612d5782612da6565b9050919050565b6000612d6982612d70565b9050919050565b6000612d7b82612d22565b9050919050565b6000612d8d82612d94565b9050919050565b6000612d9f82612d22565b9050919050565b6000612db182612db8565b9050919050565b6000612dc382612d22565b9050919050565bfe5b612dd581612d04565b8114612de057600080fd5b50565b612dec81612d16565b8114612df757600080fd5b50565b612e0381612d42565b8114612e0e57600080fd5b5056fe4f776e61626c653a206e6577206f776e657220697320746865207a65726f206164647265737343616c6c657220646f6573206e6f7420686176652041646d696e20416363657373a2646970667358221220fe63636038c0f80b315b6cc80f138e7e8e1c635a412e92cdd1718b37945b94f364736f6c63430007060033",
  "linkReferences": {},
  "deployedLinkReferences": {}
}