{
  "_format": "hh-sol-artifact-1",
  "contractName": "MaisonTower",
  "sourceName": "contracts/MaisonTower.sol",
  "abi": [
    {
      "inputs": [],
      "stateMutability": "nonpayable",
      "type": "constructor"
    },
    {
      "anonymous": false,
      "inputs": [
        {
          "indexed": false,
          "internalType": "address",
          "name": "_admin",
          "type": "address"
        },
        {
          "indexed": false,
          "internalType": "bool",
          "name": "_enabled",
          "type": "bool"
        }
      ],
      "name": "AdminAccessSet",
      "type": "event"
    },
    {
      "anonymous": false,
      "inputs": [
        {
          "indexed": true,
          "internalType": "address",
          "name": "owner",
          "type": "address"
        },
        {
          "indexed": true,
          "internalType": "address",
          "name": "approved",
          "type": "address"
        },
        {
          "indexed": true,
          "internalType": "uint256",
          "name": "tokenId",
          "type": "uint256"
        }
      ],
      "name": "Approval",
      "type": "event"
    },
    {
      "anonymous": false,
      "inputs": [
        {
          "indexed": true,
          "internalType": "address",
          "name": "owner",
          "type": "address"
        },
        {
          "indexed": true,
          "internalType": "address",
          "name": "operator",
          "type": "address"
        },
        {
          "indexed": false,
          "internalType": "bool",
          "name": "approved",
          "type": "bool"
        }
      ],
      "name": "ApprovalForAll",
      "type": "event"
    },
    {
      "anonymous": false,
      "inputs": [
        {
          "indexed": true,
          "internalType": "address",
          "name": "previousOwner",
          "type": "address"
        },
        {
          "indexed": true,
          "internalType": "address",
          "name": "newOwner",
          "type": "address"
        }
      ],
      "name": "OwnershipTransferred",
      "type": "event"
    },
    {
      "anonymous": false,
      "inputs": [
        {
          "indexed": true,
          "internalType": "address",
          "name": "from",
          "type": "address"
        },
        {
          "indexed": true,
          "internalType": "address",
          "name": "to",
          "type": "address"
        },
        {
          "indexed": true,
          "internalType": "uint256",
          "name": "tokenId",
          "type": "uint256"
        }
      ],
      "name": "Transfer",
      "type": "event"
    },
    {
      "inputs": [
        {
          "internalType": "uint256",
          "name": "",
          "type": "uint256"
        }
      ],
      "name": "_Level",
      "outputs": [
        {
          "internalType": "uint256",
          "name": "",
          "type": "uint256"
        }
      ],
      "stateMutability": "view",
      "type": "function"
    },
    {
      "inputs": [],
      "name": "_tokenIds",
      "outputs": [
        {
          "internalType": "uint256",
          "name": "_value",
          "type": "uint256"
        }
      ],
      "stateMutability": "view",
      "type": "function"
    },
    {
      "inputs": [
        {
          "internalType": "address",
          "name": "to",
          "type": "address"
        },
        {
          "internalType": "uint256",
          "name": "tokenId",
          "type": "uint256"
        }
      ],
      "name": "approve",
      "outputs": [],
      "stateMutability": "nonpayable",
      "type": "function"
    },
    {
      "inputs": [
        {
          "internalType": "address",
          "name": "owner",
          "type": "address"
        }
      ],
      "name": "balanceOf",
      "outputs": [
        {
          "internalType": "uint256",
          "name": "",
          "type": "uint256"
        }
      ],
      "stateMutability": "view",
      "type": "function"
    },
    {
      "inputs": [],
      "name": "baseURI",
      "outputs": [
        {
          "internalType": "string",
          "name": "",
          "type": "string"
        }
      ],
      "stateMutability": "view",
      "type": "function"
    },
    {
      "inputs": [
        {
          "internalType": "address",
          "name": "recipient",
          "type": "address"
        },
        {
          "internalType": "uint256[]",
          "name": "x",
          "type": "uint256[]"
        },
        {
          "internalType": "uint256[]",
          "name": "y",
          "type": "uint256[]"
        },
        {
          "internalType": "string[]",
          "name": "data",
          "type": "string[]"
        },
        {
          "internalType": "uint256[]",
          "name": "lvl",
          "type": "uint256[]"
        }
      ],
      "name": "batchMintLand",
      "outputs": [
        {
          "internalType": "uint256[]",
          "name": "",
          "type": "uint256[]"
        }
      ],
      "stateMutability": "nonpayable",
      "type": "function"
    },
    {
      "inputs": [
        {
          "internalType": "uint256",
          "name": "tokenId",
          "type": "uint256"
        }
      ],
      "name": "getApproved",
      "outputs": [
        {
          "internalType": "address",
          "name": "",
          "type": "address"
        }
      ],
      "stateMutability": "view",
      "type": "function"
    },
    {
      "inputs": [
        {
          "internalType": "uint256",
          "name": "id",
          "type": "uint256"
        }
      ],
      "name": "getCoordinatesFromId",
      "outputs": [
        {
          "internalType": "uint256",
          "name": "",
          "type": "uint256"
        },
        {
          "internalType": "uint256",
          "name": "",
          "type": "uint256"
        }
      ],
      "stateMutability": "view",
      "type": "function"
    },
    {
      "inputs": [
        {
          "internalType": "uint256",
          "name": "x",
          "type": "uint256"
        },
        {
          "internalType": "uint256",
          "name": "y",
          "type": "uint256"
        }
      ],
      "name": "getIdFromCoordinates",
      "outputs": [
        {
          "internalType": "uint256",
          "name": "",
          "type": "uint256"
        }
      ],
      "stateMutability": "view",
      "type": "function"
    },
    {
      "inputs": [
        {
          "internalType": "address",
          "name": "admin",
          "type": "address"
        }
      ],
      "name": "isAdmin",
      "outputs": [
        {
          "internalType": "bool",
          "name": "",
          "type": "bool"
        }
      ],
      "stateMutability": "view",
      "type": "function"
    },
    {
      "inputs": [
        {
          "internalType": "address",
          "name": "owner",
          "type": "address"
        },
        {
          "internalType": "address",
          "name": "operator",
          "type": "address"
        }
      ],
      "name": "isApprovedForAll",
      "outputs": [
        {
          "internalType": "bool",
          "name": "",
          "type": "bool"
        }
      ],
      "stateMutability": "view",
      "type": "function"
    },
    {
      "inputs": [
        {
          "internalType": "address",
          "name": "recipient",
          "type": "address"
        },
        {
          "internalType": "uint256",
          "name": "x",
          "type": "uint256"
        },
        {
          "internalType": "uint256",
          "name": "y",
          "type": "uint256"
        },
        {
          "internalType": "string",
          "name": "data",
          "type": "string"
        },
        {
          "internalType": "uint256",
          "name": "lvl",
          "type": "uint256"
        }
      ],
      "name": "mintLand",
      "outputs": [
        {
          "internalType": "uint256",
          "name": "",
          "type": "uint256"
        }
      ],
      "stateMutability": "nonpayable",
      "type": "function"
    },
    {
      "inputs": [],
      "name": "name",
      "outputs": [
        {
          "internalType": "string",
          "name": "",
          "type": "string"
        }
      ],
      "stateMutability": "view",
      "type": "function"
    },
    {
      "inputs": [],
      "name": "owner",
      "outputs": [
        {
          "internalType": "address",
          "name": "",
          "type": "address"
        }
      ],
      "stateMutability": "view",
      "type": "function"
    },
    {
      "inputs": [
        {
          "internalType": "uint256",
          "name": "tokenId",
          "type": "uint256"
        }
      ],
      "name": "ownerOf",
      "outputs": [
        {
          "internalType": "address",
          "name": "",
          "type": "address"
        }
      ],
      "stateMutability": "view",
      "type": "function"
    },
    {
      "inputs": [],
      "name": "renounceOwnership",
      "outputs": [],
      "stateMutability": "nonpayable",
      "type": "function"
    },
    {
      "inputs": [
        {
          "internalType": "address",
          "name": "from",
          "type": "address"
        },
        {
          "internalType": "address",
          "name": "to",
          "type": "address"
        },
        {
          "internalType": "uint256",
          "name": "tokenId",
          "type": "uint256"
        }
      ],
      "name": "safeTransferFrom",
      "outputs": [],
      "stateMutability": "nonpayable",
      "type": "function"
    },
    {
      "inputs": [
        {
          "internalType": "address",
          "name": "from",
          "type": "address"
        },
        {
          "internalType": "address",
          "name": "to",
          "type": "address"
        },
        {
          "internalType": "uint256",
          "name": "tokenId",
          "type": "uint256"
        },
        {
          "internalType": "bytes",
          "name": "_data",
          "type": "bytes"
        }
      ],
      "name": "safeTransferFrom",
      "outputs": [],
      "stateMutability": "nonpayable",
      "type": "function"
    },
    {
      "inputs": [
        {
          "internalType": "address",
          "name": "admin",
          "type": "address"
        },
        {
          "internalType": "bool",
          "name": "enabled",
          "type": "bool"
        }
      ],
      "name": "setAdmin",
      "outputs": [],
      "stateMutability": "nonpayable",
      "type": "function"
    },
    {
      "inputs": [
        {
          "internalType": "address",
          "name": "operator",
          "type": "address"
        },
        {
          "internalType": "bool",
          "name": "approved",
          "type": "bool"
        }
      ],
      "name": "setApprovalForAll",
      "outputs": [],
      "stateMutability": "nonpayable",
      "type": "function"
    },
    {
      "inputs": [
        {
          "internalType": "bytes4",
          "name": "interfaceId",
          "type": "bytes4"
        }
      ],
      "name": "supportsInterface",
      "outputs": [
        {
          "internalType": "bool",
          "name": "",
          "type": "bool"
        }
      ],
      "stateMutability": "view",
      "type": "function"
    },
    {
      "inputs": [],
      "name": "symbol",
      "outputs": [
        {
          "internalType": "string",
          "name": "",
          "type": "string"
        }
      ],
      "stateMutability": "view",
      "type": "function"
    },
    {
      "inputs": [
        {
          "internalType": "uint256",
          "name": "index",
          "type": "uint256"
        }
      ],
      "name": "tokenByIndex",
      "outputs": [
        {
          "internalType": "uint256",
          "name": "",
          "type": "uint256"
        }
      ],
      "stateMutability": "view",
      "type": "function"
    },
    {
      "inputs": [
        {
          "internalType": "address",
          "name": "owner",
          "type": "address"
        },
        {
          "internalType": "uint256",
          "name": "index",
          "type": "uint256"
        }
      ],
      "name": "tokenOfOwnerByIndex",
      "outputs": [
        {
          "internalType": "uint256",
          "name": "",
          "type": "uint256"
        }
      ],
      "stateMutability": "view",
      "type": "function"
    },
    {
      "inputs": [
        {
          "internalType": "uint256",
          "name": "tokenId",
          "type": "uint256"
        }
      ],
      "name": "tokenURI",
      "outputs": [
        {
          "internalType": "string",
          "name": "",
          "type": "string"
        }
      ],
      "stateMutability": "view",
      "type": "function"
    },
    {
      "inputs": [],
      "name": "totalSupply",
      "outputs": [
        {
          "internalType": "uint256",
          "name": "",
          "type": "uint256"
        }
      ],
      "stateMutability": "view",
      "type": "function"
    },
    {
      "inputs": [
        {
          "internalType": "address",
          "name": "from",
          "type": "address"
        },
        {
          "internalType": "address",
          "name": "to",
          "type": "address"
        },
        {
          "internalType": "uint256",
          "name": "tokenId",
          "type": "uint256"
        }
      ],
      "name": "transferFrom",
      "outputs": [],
      "stateMutability": "nonpayable",
      "type": "function"
    },
    {
      "inputs": [
        {
          "internalType": "address",
          "name": "newOwner",
          "type": "address"
        }
      ],
      "name": "transferOwnership",
      "outputs": [],
      "stateMutability": "nonpayable",
      "type": "function"
    }
  ],
  "bytecode": "0x60806040523480156200001157600080fd5b506040518060400160405280600b81526020017f4d6169736f6e546f7765720000000000000000000000000000000000000000008152506040518060400160405280600381526020017f5457520000000000000000000000000000000000000000000000000000000000815250620000966301ffc9a760e01b620001c960201b60201c565b8160069080519060200190620000ae929190620002da565b508060079080519060200190620000c7929190620002da565b50620000e06380ac58cd60e01b620001c960201b60201c565b620000f8635b5e139f60e01b620001c960201b60201c565b6200011063780e9d6360e01b620001c960201b60201c565b5050600062000124620002d260201b60201c565b905080600a60006101000a81548173ffffffffffffffffffffffffffffffffffffffff021916908373ffffffffffffffffffffffffffffffffffffffff1602179055508073ffffffffffffffffffffffffffffffffffffffff16600073ffffffffffffffffffffffffffffffffffffffff167f8be0079c531659141344cd1fd0a4f28419497f9722a3daafe3b4186f6b6457e060405160405180910390a35062000390565b63ffffffff60e01b817bffffffffffffffffffffffffffffffffffffffffffffffffffffffff1916141562000266576040517f08c379a000000000000000000000000000000000000000000000000000000000815260040180806020018281038252601c8152602001807f4552433136353a20696e76616c696420696e746572666163652069640000000081525060200191505060405180910390fd5b6001600080837bffffffffffffffffffffffffffffffffffffffffffffffffffffffff19167bffffffffffffffffffffffffffffffffffffffffffffffffffffffff1916815260200190815260200160002060006101000a81548160ff02191690831515021790555050565b600033905090565b828054600181600116156101000203166002900490600052602060002090601f0160209004810192826200031257600085556200035e565b82601f106200032d57805160ff19168380011785556200035e565b828001600101855582156200035e579182015b828111156200035d57825182559160200191906001019062000340565b5b5090506200036d919062000371565b5090565b5b808211156200038c57600081600090555060010162000372565b5090565b61435380620003a06000396000f3fe608060405234801561001057600080fd5b50600436106101c45760003560e01c80636352211e116100f9578063a22cb46511610097578063c87b56dd11610071578063c87b56dd14610540578063e985e9c514610570578063ef06124f146105a0578063f2fde38b146105d0576101c4565b8063a22cb465146104ea578063aa46a40014610506578063b88d4fde14610524576101c4565b8063715018a6116100d3578063715018a6146104745780638da5cb5b1461047e5780638f2f3e1e1461049c57806395d89b41146104cc576101c4565b80636352211e146103f65780636c0360eb1461042657806370a0823114610444576101c4565b806324d7806c1161016657806343c332761161014057806343c33276146103495780634b0bddd21461037a5780634f6ccce71461039657806362acf799146103c6576101c4565b806324d7806c146102cd5780632f745c59146102fd57806342842e0e1461032d576101c4565b8063081812fc116101a2578063081812fc14610247578063095ea7b31461027757806318160ddd1461029357806323b872dd146102b1576101c4565b806301ffc9a7146101c957806306fdde03146101f9578063071d9d5814610217575b600080fd5b6101e360048036038101906101de919061390f565b6105ec565b6040516101f09190613c8d565b60405180910390f35b610201610653565b60405161020e9190613ca8565b60405180910390f35b610231600480360381019061022c9190613731565b6106f5565b60405161023e9190613c6b565b60405180910390f35b610261600480360381019061025c9190613938565b610944565b60405161026e9190613c50565b60405180910390f35b610291600480360381019061028c9190613844565b6109df565b005b61029b610b23565b6040516102a89190613d8a565b60405180910390f35b6102cb60048036038101906102c69190613667565b610b34565b005b6102e760048036038101906102e29190613602565b610baa565b6040516102f49190613c8d565b60405180910390f35b61031760048036038101906103129190613844565b610c00565b6040516103249190613d8a565b60405180910390f35b61034760048036038101906103429190613667565b610c5b565b005b610363600480360381019061035e9190613938565b610c7b565b604051610371929190613da5565b60405180910390f35b610394600480360381019061038f9190613808565b610d28565b005b6103b060048036038101906103ab9190613938565b610e89565b6040516103bd9190613d8a565b60405180910390f35b6103e060048036038101906103db9190613961565b610eac565b6040516103ed9190613d8a565b60405180910390f35b610410600480360381019061040b9190613938565b610f26565b60405161041d9190613c50565b60405180910390f35b61042e610f5d565b60405161043b9190613ca8565b60405180910390f35b61045e60048036038101906104599190613602565b610fff565b60405161046b9190613d8a565b60405180910390f35b61047c6110d4565b005b610486611244565b6040516104939190613c50565b60405180910390f35b6104b660048036038101906104b19190613880565b61126e565b6040516104c39190613d8a565b60405180910390f35b6104d4611580565b6040516104e19190613ca8565b60405180910390f35b61050460048036038101906104ff9190613808565b611622565b005b61050e6117d8565b60405161051b9190613d8a565b60405180910390f35b61053e600480360381019061053991906136b6565b6117e4565b005b61055a60048036038101906105559190613938565b61185c565b6040516105679190613ca8565b60405180910390f35b61058a6004803603810190610585919061362b565b611b2d565b6040516105979190613c8d565b60405180910390f35b6105ba60048036038101906105b59190613938565b611bc1565b6040516105c79190613d8a565b60405180910390f35b6105ea60048036038101906105e59190613602565b611bd9565b005b6000806000837bffffffffffffffffffffffffffffffffffffffffffffffffffffffff19167bffffffffffffffffffffffffffffffffffffffffffffffffffffffff1916815260200190815260200160002060009054906101000a900460ff169050919050565b606060068054600181600116156101000203166002900480601f0160208091040260200160405190810160405280929190818152602001828054600181600116156101000203166002900480156106eb5780601f106106c0576101008083540402835291602001916106eb565b820191906000526020600020905b8154815290600101906020018083116106ce57829003601f168201915b5050505050905090565b6060600b6000610703611dce565b73ffffffffffffffffffffffffffffffffffffffff1673ffffffffffffffffffffffffffffffffffffffff16815260200190815260200160002060009054906101000a900460ff168061078f5750610759611244565b73ffffffffffffffffffffffffffffffffffffffff16610777611dce565b73ffffffffffffffffffffffffffffffffffffffff16145b6107e4576040517f08c379a00000000000000000000000000000000000000000000000000000000081526004018080602001828103825260218152602001806142536021913960400191505060405180910390fd5b835185511480156107f6575082518451145b8015610803575081518451145b610842576040517f08c379a000000000000000000000000000000000000000000000000000000000815260040161083990613d0a565b60405180910390fd5b6000855167ffffffffffffffff8111801561085c57600080fd5b5060405190808252806020026020018201604052801561088b5781602001602082028036833780820191505090505b50905060005b86518110156109365760008782815181106108a857fe5b6020026020010151905060008783815181106108c057fe5b6020026020010151905060008784815181106108d857fe5b6020026020010151905060008785815181106108f057fe5b6020026020010151905060006109098d8686868661126e565b90508087878151811061091857fe5b60200260200101818152505050505050508080600101915050610891565b508091505095945050505050565b600061094f82611dd6565b6109a4576040517f08c379a000000000000000000000000000000000000000000000000000000000815260040180806020018281038252602c8152602001806141fb602c913960400191505060405180910390fd5b6004600083815260200190815260200160002060009054906101000a900473ffffffffffffffffffffffffffffffffffffffff169050919050565b60006109ea82610f26565b90508073ffffffffffffffffffffffffffffffffffffffff168373ffffffffffffffffffffffffffffffffffffffff161415610a71576040517f08c379a00000000000000000000000000000000000000000000000000000000081526004018080602001828103825260218152602001806142cc6021913960400191505060405180910390fd5b8073ffffffffffffffffffffffffffffffffffffffff16610a90611dce565b73ffffffffffffffffffffffffffffffffffffffff161480610abf5750610abe81610ab9611dce565b611b2d565b5b610b14576040517f08c379a000000000000000000000000000000000000000000000000000000000815260040180806020018281038252603881526020018061412d6038913960400191505060405180910390fd5b610b1e8383611df3565b505050565b6000610b2f6002611eac565b905090565b610b45610b3f611dce565b82611ec1565b610b9a576040517f08c379a00000000000000000000000000000000000000000000000000000000081526004018080602001828103825260318152602001806142ed6031913960400191505060405180910390fd5b610ba5838383611fb5565b505050565b6000600b60008373ffffffffffffffffffffffffffffffffffffffff1673ffffffffffffffffffffffffffffffffffffffff16815260200190815260200160002060009054906101000a900460ff169050919050565b6000610c5382600160008673ffffffffffffffffffffffffffffffffffffffff1673ffffffffffffffffffffffffffffffffffffffff1681526020019081526020016000206121f890919063ffffffff16565b905092915050565b610c76838383604051806020016040528060008152506117e4565b505050565b600080610c8783611dd6565b610cc6576040517f08c379a0000000000000000000000000000000000000000000000000000000008152600401610cbd90613d6a565b60405180910390fd5b6000600f60008581526020019081526020016000205490506000610cfa662386f26fc100008361221290919063ffffffff16565b90506000610d18662386f26fc100008461229b90919063ffffffff16565b9050818194509450505050915091565b610d30611dce565b73ffffffffffffffffffffffffffffffffffffffff16610d4e611244565b73ffffffffffffffffffffffffffffffffffffffff1614610dd7576040517f08c379a00000000000000000000000000000000000000000000000000000000081526004018080602001828103825260208152602001807f4f776e61626c653a2063616c6c6572206973206e6f7420746865206f776e657281525060200191505060405180910390fd5b80600b60008473ffffffffffffffffffffffffffffffffffffffff1673ffffffffffffffffffffffffffffffffffffffff16815260200190815260200160002060006101000a81548160ff0219169083151502179055507fe529461c8529abc0e0fe7c5ee361f74fe22e0b7574df1fc0b7558a282091fb788282604051808373ffffffffffffffffffffffffffffffffffffffff16815260200182151581526020019250505060405180910390a15050565b600080610ea083600261232490919063ffffffff16565b50905080915050919050565b600080610eb98484612350565b90506000600e6000838152602001908152602001600020549050610edc81611dd6565b610f1b576040517f08c379a0000000000000000000000000000000000000000000000000000000008152600401610f1290613d6a565b60405180910390fd5b809250505092915050565b6000610f568260405180606001604052806029815260200161418f60299139600261238b9092919063ffffffff16565b9050919050565b606060098054600181600116156101000203166002900480601f016020809104026020016040519081016040528092919081815260200182805460018160011615610100020316600290048015610ff55780601f10610fca57610100808354040283529160200191610ff5565b820191906000526020600020905b815481529060010190602001808311610fd857829003601f168201915b5050505050905090565b60008073ffffffffffffffffffffffffffffffffffffffff168273ffffffffffffffffffffffffffffffffffffffff161415611086576040517f08c379a000000000000000000000000000000000000000000000000000000000815260040180806020018281038252602a815260200180614165602a913960400191505060405180910390fd5b6110cd600160008473ffffffffffffffffffffffffffffffffffffffff1673ffffffffffffffffffffffffffffffffffffffff1681526020019081526020016000206123aa565b9050919050565b6110dc611dce565b73ffffffffffffffffffffffffffffffffffffffff166110fa611244565b73ffffffffffffffffffffffffffffffffffffffff1614611183576040517f08c379a00000000000000000000000000000000000000000000000000000000081526004018080602001828103825260208152602001807f4f776e61626c653a2063616c6c6572206973206e6f7420746865206f776e657281525060200191505060405180910390fd5b600073ffffffffffffffffffffffffffffffffffffffff16600a60009054906101000a900473ffffffffffffffffffffffffffffffffffffffff1673ffffffffffffffffffffffffffffffffffffffff167f8be0079c531659141344cd1fd0a4f28419497f9722a3daafe3b4186f6b6457e060405160405180910390a36000600a60006101000a81548173ffffffffffffffffffffffffffffffffffffffff021916908373ffffffffffffffffffffffffffffffffffffffff160217905550565b6000600a60009054906101000a900473ffffffffffffffffffffffffffffffffffffffff16905090565b6000600b600061127c611dce565b73ffffffffffffffffffffffffffffffffffffffff1673ffffffffffffffffffffffffffffffffffffffff16815260200190815260200160002060009054906101000a900460ff168061130857506112d2611244565b73ffffffffffffffffffffffffffffffffffffffff166112f0611dce565b73ffffffffffffffffffffffffffffffffffffffff16145b61135d576040517f08c379a00000000000000000000000000000000000000000000000000000000081526004018080602001828103825260218152602001806142536021913960400191505060405180910390fd5b600d8360405161136d9190613c39565b908152602001604051809103902060009054906101000a900460ff16156113c9576040517f08c379a00000000000000000000000000000000000000000000000000000000081526004016113c090613d2a565b60405180910390fd5b60006113d58686612350565b90506000600e6000838152602001908152602001600020541461142d576040517f08c379a000000000000000000000000000000000000000000000000000000000815260040161142490613cea565b60405180910390fd5b6000601060008381526020019081526020016000205414611483576040517f08c379a000000000000000000000000000000000000000000000000000000000815260040161147a90613cca565b60405180910390fd5b61148d600c6123bf565b6000611499600c6123d5565b9050600a8111156114df576040517f08c379a00000000000000000000000000000000000000000000000000000000081526004016114d690613d4a565b60405180910390fd5b6114e988826123e3565b6114f381866125d7565b6001600d866040516115059190613c39565b908152602001604051809103902060006101000a81548160ff02191690831515021790555080600e60008481526020019081526020016000208190555081600f600083815260200190815260200160002081905550836010600083815260200190815260200160002081905550809250505095945050505050565b606060078054600181600116156101000203166002900480601f0160208091040260200160405190810160405280929190818152602001828054600181600116156101000203166002900480156116185780601f106115ed57610100808354040283529160200191611618565b820191906000526020600020905b8154815290600101906020018083116115fb57829003601f168201915b5050505050905090565b61162a611dce565b73ffffffffffffffffffffffffffffffffffffffff168273ffffffffffffffffffffffffffffffffffffffff1614156116cb576040517f08c379a00000000000000000000000000000000000000000000000000000000081526004018080602001828103825260198152602001807f4552433732313a20617070726f766520746f2063616c6c65720000000000000081525060200191505060405180910390fd5b80600560006116d8611dce565b73ffffffffffffffffffffffffffffffffffffffff1673ffffffffffffffffffffffffffffffffffffffff16815260200190815260200160002060008473ffffffffffffffffffffffffffffffffffffffff1673ffffffffffffffffffffffffffffffffffffffff16815260200190815260200160002060006101000a81548160ff0219169083151502179055508173ffffffffffffffffffffffffffffffffffffffff16611785611dce565b73ffffffffffffffffffffffffffffffffffffffff167f17307eab39ab6107e8899845ad3d59bd9653f200f220920489ca2b5937696c318360405180821515815260200191505060405180910390a35050565b600c8060000154905081565b6117f56117ef611dce565b83611ec1565b61184a576040517f08c379a00000000000000000000000000000000000000000000000000000000081526004018080602001828103825260318152602001806142ed6031913960400191505060405180910390fd5b61185684848484612661565b50505050565b606061186782611dd6565b6118bc576040517f08c379a000000000000000000000000000000000000000000000000000000000815260040180806020018281038252602f81526020018061429d602f913960400191505060405180910390fd5b6000600860008481526020019081526020016000208054600181600116156101000203166002900480601f0160208091040260200160405190810160405280929190818152602001828054600181600116156101000203166002900480156119655780601f1061193a57610100808354040283529160200191611965565b820191906000526020600020905b81548152906001019060200180831161194857829003601f168201915b505050505090506000611976610f5d565b905060008151141561198c578192505050611b28565b600082511115611a5d5780826040516020018083805190602001908083835b602083106119ce57805182526020820191506020810190506020830392506119ab565b6001836020036101000a03801982511681845116808217855250505050505090500182805190602001908083835b60208310611a1f57805182526020820191506020810190506020830392506119fc565b6001836020036101000a0380198251168184511680821785525050505050509050019250505060405160208183030381529060405292505050611b28565b80611a67856126d3565b6040516020018083805190602001908083835b60208310611a9d5780518252602082019150602081019050602083039250611a7a565b6001836020036101000a03801982511681845116808217855250505050505090500182805190602001908083835b60208310611aee5780518252602082019150602081019050602083039250611acb565b6001836020036101000a03801982511681845116808217855250505050505090500192505050604051602081830303815290604052925050505b919050565b6000600560008473ffffffffffffffffffffffffffffffffffffffff1673ffffffffffffffffffffffffffffffffffffffff16815260200190815260200160002060008373ffffffffffffffffffffffffffffffffffffffff1673ffffffffffffffffffffffffffffffffffffffff16815260200190815260200160002060009054906101000a900460ff16905092915050565b60106020528060005260406000206000915090505481565b611be1611dce565b73ffffffffffffffffffffffffffffffffffffffff16611bff611244565b73ffffffffffffffffffffffffffffffffffffffff1614611c88576040517f08c379a00000000000000000000000000000000000000000000000000000000081526004018080602001828103825260208152602001807f4f776e61626c653a2063616c6c6572206973206e6f7420746865206f776e657281525060200191505060405180910390fd5b600073ffffffffffffffffffffffffffffffffffffffff168173ffffffffffffffffffffffffffffffffffffffff161415611d0e576040517f08c379a00000000000000000000000000000000000000000000000000000000081526004018080602001828103825260268152602001806140916026913960400191505060405180910390fd5b8073ffffffffffffffffffffffffffffffffffffffff16600a60009054906101000a900473ffffffffffffffffffffffffffffffffffffffff1673ffffffffffffffffffffffffffffffffffffffff167f8be0079c531659141344cd1fd0a4f28419497f9722a3daafe3b4186f6b6457e060405160405180910390a380600a60006101000a81548173ffffffffffffffffffffffffffffffffffffffff021916908373ffffffffffffffffffffffffffffffffffffffff16021790555050565b600033905090565b6000611dec82600261281a90919063ffffffff16565b9050919050565b816004600083815260200190815260200160002060006101000a81548173ffffffffffffffffffffffffffffffffffffffff021916908373ffffffffffffffffffffffffffffffffffffffff160217905550808273ffffffffffffffffffffffffffffffffffffffff16611e6683610f26565b73ffffffffffffffffffffffffffffffffffffffff167f8c5be1e5ebec7d5bd14f71427d1e84f3dd0314c0f7b2291e5b200ac8c7c3b92560405160405180910390a45050565b6000611eba82600001612834565b9050919050565b6000611ecc82611dd6565b611f21576040517f08c379a000000000000000000000000000000000000000000000000000000000815260040180806020018281038252602c815260200180614101602c913960400191505060405180910390fd5b6000611f2c83610f26565b90508073ffffffffffffffffffffffffffffffffffffffff168473ffffffffffffffffffffffffffffffffffffffff161480611f9b57508373ffffffffffffffffffffffffffffffffffffffff16611f8384610944565b73ffffffffffffffffffffffffffffffffffffffff16145b80611fac5750611fab8185611b2d565b5b91505092915050565b8273ffffffffffffffffffffffffffffffffffffffff16611fd582610f26565b73ffffffffffffffffffffffffffffffffffffffff1614612041576040517f08c379a00000000000000000000000000000000000000000000000000000000081526004018080602001828103825260298152602001806142746029913960400191505060405180910390fd5b600073ffffffffffffffffffffffffffffffffffffffff168273ffffffffffffffffffffffffffffffffffffffff1614156120c7576040517f08c379a00000000000000000000000000000000000000000000000000000000081526004018080602001828103825260248152602001806140b76024913960400191505060405180910390fd5b6120d2838383612845565b6120dd600082611df3565b61212e81600160008673ffffffffffffffffffffffffffffffffffffffff1673ffffffffffffffffffffffffffffffffffffffff16815260200190815260200160002061284a90919063ffffffff16565b5061218081600160008573ffffffffffffffffffffffffffffffffffffffff1673ffffffffffffffffffffffffffffffffffffffff16815260200190815260200160002061286490919063ffffffff16565b506121978183600261287e9092919063ffffffff16565b50808273ffffffffffffffffffffffffffffffffffffffff168473ffffffffffffffffffffffffffffffffffffffff167fddf252ad1be2c89b69c2b068fc378daa952ba7f163c4a11628f55a4df523b3ef60405160405180910390a4505050565b600061220783600001836128b3565b60001c905092915050565b6000808211612289576040517f08c379a000000000000000000000000000000000000000000000000000000000815260040180806020018281038252601a8152602001807f536166654d6174683a206469766973696f6e206279207a65726f00000000000081525060200191505060405180910390fd5b81838161229257fe5b04905092915050565b6000808211612312576040517f08c379a00000000000000000000000000000000000000000000000000000000081526004018080602001828103825260188152602001807f536166654d6174683a206d6f64756c6f206279207a65726f000000000000000081525060200191505060405180910390fd5b81838161231b57fe5b06905092915050565b6000806000806123378660000186612936565b915091508160001c8160001c9350935050509250929050565b60008061237f612370662386f26fc10000866129cf90919063ffffffff16565b84612a5590919063ffffffff16565b90508091505092915050565b600061239e846000018460001b84612add565b60001c90509392505050565b60006123b882600001612bd3565b9050919050565b6001816000016000828254019250508190555050565b600081600001549050919050565b600073ffffffffffffffffffffffffffffffffffffffff168273ffffffffffffffffffffffffffffffffffffffff161415612486576040517f08c379a00000000000000000000000000000000000000000000000000000000081526004018080602001828103825260208152602001807f4552433732313a206d696e7420746f20746865207a65726f206164647265737381525060200191505060405180910390fd5b61248f81611dd6565b15612502576040517f08c379a000000000000000000000000000000000000000000000000000000000815260040180806020018281038252601c8152602001807f4552433732313a20746f6b656e20616c7265616479206d696e7465640000000081525060200191505060405180910390fd5b61250e60008383612845565b61255f81600160008573ffffffffffffffffffffffffffffffffffffffff1673ffffffffffffffffffffffffffffffffffffffff16815260200190815260200160002061286490919063ffffffff16565b506125768183600261287e9092919063ffffffff16565b50808273ffffffffffffffffffffffffffffffffffffffff16600073ffffffffffffffffffffffffffffffffffffffff167fddf252ad1be2c89b69c2b068fc378daa952ba7f163c4a11628f55a4df523b3ef60405160405180910390a45050565b6125e082611dd6565b612635576040517f08c379a000000000000000000000000000000000000000000000000000000000815260040180806020018281038252602c815260200180614227602c913960400191505060405180910390fd5b8060086000848152602001908152602001600020908051906020019061265c929190613316565b505050565b61266c848484611fb5565b61267884848484612be4565b6126cd576040517f08c379a000000000000000000000000000000000000000000000000000000000815260040180806020018281038252603281526020018061405f6032913960400191505060405180910390fd5b50505050565b6060600082141561271b576040518060400160405280600181526020017f30000000000000000000000000000000000000000000000000000000000000008152509050612815565b600082905060005b60008214612745578080600101915050600a828161273d57fe5b049150612723565b60008167ffffffffffffffff8111801561275e57600080fd5b506040519080825280601f01601f1916602001820160405280156127915781602001600182028036833780820191505090505b50905060006001830390508593505b6000841461280d57600a84816127b257fe5b0660300160f81b828280600190039350815181106127cc57fe5b60200101907effffffffffffffffffffffffffffffffffffffffffffffffffffffffffffff1916908160001a905350600a848161280557fe5b0493506127a0565b819450505050505b919050565b600061282c836000018360001b612dfd565b905092915050565b600081600001805490509050919050565b505050565b600061285c836000018360001b612e20565b905092915050565b6000612876836000018360001b612f08565b905092915050565b60006128aa846000018460001b8473ffffffffffffffffffffffffffffffffffffffff1660001b612f78565b90509392505050565b600081836000018054905011612914576040517f08c379a000000000000000000000000000000000000000000000000000000000815260040180806020018281038252602281526020018061403d6022913960400191505060405180910390fd5b82600001828154811061292357fe5b9060005260206000200154905092915050565b60008082846000018054905011612998576040517f08c379a00000000000000000000000000000000000000000000000000000000081526004018080602001828103825260228152602001806141b86022913960400191505060405180910390fd5b60008460000184815481106129a957fe5b906000526020600020906002020190508060000154816001015492509250509250929050565b6000808314156129e25760009050612a4f565b60008284029050828482816129f357fe5b0414612a4a576040517f08c379a00000000000000000000000000000000000000000000000000000000081526004018080602001828103825260218152602001806141da6021913960400191505060405180910390fd5b809150505b92915050565b600080828401905083811015612ad3576040517f08c379a000000000000000000000000000000000000000000000000000000000815260040180806020018281038252601b8152602001807f536166654d6174683a206164646974696f6e206f766572666c6f77000000000081525060200191505060405180910390fd5b8091505092915050565b60008084600101600085815260200190815260200160002054905060008114158390612ba4576040517f08c379a00000000000000000000000000000000000000000000000000000000081526004018080602001828103825283818151815260200191508051906020019080838360005b83811015612b69578082015181840152602081019050612b4e565b50505050905090810190601f168015612b965780820380516001836020036101000a031916815260200191505b509250505060405180910390fd5b50846000016001820381548110612bb757fe5b9060005260206000209060020201600101549150509392505050565b600081600001805490509050919050565b6000612c058473ffffffffffffffffffffffffffffffffffffffff16613054565b612c125760019050612df5565b6000612d7c63150b7a0260e01b612c27611dce565b888787604051602401808573ffffffffffffffffffffffffffffffffffffffff1681526020018473ffffffffffffffffffffffffffffffffffffffff16815260200183815260200180602001828103825283818151815260200191508051906020019080838360005b83811015612cab578082015181840152602081019050612c90565b50505050905090810190601f168015612cd85780820380516001836020036101000a031916815260200191505b5095505050505050604051602081830303815290604052907bffffffffffffffffffffffffffffffffffffffffffffffffffffffff19166020820180517bffffffffffffffffffffffffffffffffffffffffffffffffffffffff838183161783525050505060405180606001604052806032815260200161405f603291398773ffffffffffffffffffffffffffffffffffffffff166130679092919063ffffffff16565b90506000818060200190516020811015612d9557600080fd5b8101908080519060200190929190505050905063150b7a0260e01b7bffffffffffffffffffffffffffffffffffffffffffffffffffffffff1916817bffffffffffffffffffffffffffffffffffffffffffffffffffffffff191614925050505b949350505050565b600080836001016000848152602001908152602001600020541415905092915050565b60008083600101600084815260200190815260200160002054905060008114612efc5760006001820390506000600186600001805490500390506000866000018281548110612e6b57fe5b9060005260206000200154905080876000018481548110612e8857fe5b9060005260206000200181905550600183018760010160008381526020019081526020016000208190555086600001805480612ec057fe5b60019003818190600052602060002001600090559055866001016000878152602001908152602001600020600090556001945050505050612f02565b60009150505b92915050565b6000612f14838361307f565b612f6d578260000182908060018154018082558091505060019003906000526020600020016000909190919091505582600001805490508360010160008481526020019081526020016000208190555060019050612f72565b600090505b92915050565b600080846001016000858152602001908152602001600020549050600081141561301f5784600001604051806040016040528086815260200185815250908060018154018082558091505060019003906000526020600020906002020160009091909190915060008201518160000155602082015181600101555050846000018054905085600101600086815260200190815260200160002081905550600191505061304d565b8285600001600183038154811061303257fe5b90600052602060002090600202016001018190555060009150505b9392505050565b600080823b905060008111915050919050565b606061307684846000856130a2565b90509392505050565b600080836001016000848152602001908152602001600020541415905092915050565b6060824710156130fd576040517f08c379a00000000000000000000000000000000000000000000000000000000081526004018080602001828103825260268152602001806140db6026913960400191505060405180910390fd5b61310685613054565b613178576040517f08c379a000000000000000000000000000000000000000000000000000000000815260040180806020018281038252601d8152602001807f416464726573733a2063616c6c20746f206e6f6e2d636f6e747261637400000081525060200191505060405180910390fd5b6000808673ffffffffffffffffffffffffffffffffffffffff1685876040518082805190602001908083835b602083106131c757805182526020820191506020810190506020830392506131a4565b6001836020036101000a03801982511681845116808217855250505050505090500191505060006040518083038185875af1925050503d8060008114613229576040519150601f19603f3d011682016040523d82523d6000602084013e61322e565b606091505b509150915061323e82828661324a565b92505050949350505050565b6060831561325a5782905061330f565b60008351111561326d5782518084602001fd5b816040517f08c379a00000000000000000000000000000000000000000000000000000000081526004018080602001828103825283818151815260200191508051906020019080838360005b838110156132d45780820151818401526020810190506132b9565b50505050905090810190601f1680156133015780820380516001836020036101000a031916815260200191505b509250505060405180910390fd5b9392505050565b828054600181600116156101000203166002900490600052602060002090601f01602090048101928261334c5760008555613393565b82601f1061336557805160ff1916838001178555613393565b82800160010185558215613393579182015b82811115613392578251825591602001919060010190613377565b5b5090506133a091906133a4565b5090565b5b808211156133bd5760008160009055506001016133a5565b5090565b60006133d46133cf84613dff565b613dce565b9050808382526020820190508260005b8581101561341457813585016133fa88826135c3565b8452602084019350602083019250506001810190506133e4565b5050509392505050565b600061343161342c84613e2b565b613dce565b9050808382526020820190508285602086028201111561345057600080fd5b60005b85811015613480578161346688826135ed565b845260208401935060208301925050600181019050613453565b5050509392505050565b600061349d61349884613e57565b613dce565b9050828152602081018484840111156134b557600080fd5b6134c0848285613f8b565b509392505050565b60006134db6134d684613e87565b613dce565b9050828152602081018484840111156134f357600080fd5b6134fe848285613f8b565b509392505050565b60008135905061351581613fe0565b92915050565b600082601f83011261352c57600080fd5b813561353c8482602086016133c1565b91505092915050565b600082601f83011261355657600080fd5b813561356684826020860161341e565b91505092915050565b60008135905061357e81613ff7565b92915050565b6000813590506135938161400e565b92915050565b600082601f8301126135aa57600080fd5b81356135ba84826020860161348a565b91505092915050565b600082601f8301126135d457600080fd5b81356135e48482602086016134c8565b91505092915050565b6000813590506135fc81614025565b92915050565b60006020828403121561361457600080fd5b600061362284828501613506565b91505092915050565b6000806040838503121561363e57600080fd5b600061364c85828601613506565b925050602061365d85828601613506565b9150509250929050565b60008060006060848603121561367c57600080fd5b600061368a86828701613506565b935050602061369b86828701613506565b92505060406136ac868287016135ed565b9150509250925092565b600080600080608085870312156136cc57600080fd5b60006136da87828801613506565b94505060206136eb87828801613506565b93505060406136fc878288016135ed565b925050606085013567ffffffffffffffff81111561371957600080fd5b61372587828801613599565b91505092959194509250565b600080600080600060a0868803121561374957600080fd5b600061375788828901613506565b955050602086013567ffffffffffffffff81111561377457600080fd5b61378088828901613545565b945050604086013567ffffffffffffffff81111561379d57600080fd5b6137a988828901613545565b935050606086013567ffffffffffffffff8111156137c657600080fd5b6137d28882890161351b565b925050608086013567ffffffffffffffff8111156137ef57600080fd5b6137fb88828901613545565b9150509295509295909350565b6000806040838503121561381b57600080fd5b600061382985828601613506565b925050602061383a8582860161356f565b9150509250929050565b6000806040838503121561385757600080fd5b600061386585828601613506565b9250506020613876858286016135ed565b9150509250929050565b600080600080600060a0868803121561389857600080fd5b60006138a688828901613506565b95505060206138b7888289016135ed565b94505060406138c8888289016135ed565b935050606086013567ffffffffffffffff8111156138e557600080fd5b6138f1888289016135c3565b9250506080613902888289016135ed565b9150509295509295909350565b60006020828403121561392157600080fd5b600061392f84828501613584565b91505092915050565b60006020828403121561394a57600080fd5b6000613958848285016135ed565b91505092915050565b6000806040838503121561397457600080fd5b6000613982858286016135ed565b9250506020613993858286016135ed565b9150509250929050565b60006139a98383613c1b565b60208301905092915050565b6139be81613f17565b82525050565b60006139cf82613ec7565b6139d98185613eea565b93506139e483613eb7565b8060005b83811015613a155781516139fc888261399d565b9750613a0783613edd565b9250506001810190506139e8565b5085935050505092915050565b613a2b81613f29565b82525050565b6000613a3c82613ed2565b613a468185613efb565b9350613a56818560208601613f9a565b613a5f81613fcf565b840191505092915050565b6000613a7582613ed2565b613a7f8185613f0c565b9350613a8f818560208601613f9a565b80840191505092915050565b6000613aa8600e83613efb565b91507f416c7265616479206d696e7465640000000000000000000000000000000000006000830152602082019050919050565b6000613ae8601c83613efb565b91507f4e465420666f72207b782c797d20616c7265616479206d696e746564000000006000830152602082019050919050565b6000613b28601683613efb565b91507f506172616d73206c656e677468206d69736d61746368000000000000000000006000830152602082019050919050565b6000613b68601b83613efb565b91507f4e465420666f72206461746120616c7265616479206d696e74656400000000006000830152602082019050919050565b6000613ba8600c83613efb565b91507f6e6f206c616e64206c65667400000000000000000000000000000000000000006000830152602082019050919050565b6000613be8601283613efb565b91507f4e465420646f6573206e6f7420657869737400000000000000000000000000006000830152602082019050919050565b613c2481613f81565b82525050565b613c3381613f81565b82525050565b6000613c458284613a6a565b915081905092915050565b6000602082019050613c6560008301846139b5565b92915050565b60006020820190508181036000830152613c8581846139c4565b905092915050565b6000602082019050613ca26000830184613a22565b92915050565b60006020820190508181036000830152613cc28184613a31565b905092915050565b60006020820190508181036000830152613ce381613a9b565b9050919050565b60006020820190508181036000830152613d0381613adb565b9050919050565b60006020820190508181036000830152613d2381613b1b565b9050919050565b60006020820190508181036000830152613d4381613b5b565b9050919050565b60006020820190508181036000830152613d6381613b9b565b9050919050565b60006020820190508181036000830152613d8381613bdb565b9050919050565b6000602082019050613d9f6000830184613c2a565b92915050565b6000604082019050613dba6000830185613c2a565b613dc76020830184613c2a565b9392505050565b6000604051905081810181811067ffffffffffffffff82111715613df557613df4613fcd565b5b8060405250919050565b600067ffffffffffffffff821115613e1a57613e19613fcd565b5b602082029050602081019050919050565b600067ffffffffffffffff821115613e4657613e45613fcd565b5b602082029050602081019050919050565b600067ffffffffffffffff821115613e7257613e71613fcd565b5b601f19601f8301169050602081019050919050565b600067ffffffffffffffff821115613ea257613ea1613fcd565b5b601f19601f8301169050602081019050919050565b6000819050602082019050919050565b600081519050919050565b600081519050919050565b6000602082019050919050565b600082825260208201905092915050565b600082825260208201905092915050565b600081905092915050565b6000613f2282613f61565b9050919050565b60008115159050919050565b60007fffffffff0000000000000000000000000000000000000000000000000000000082169050919050565b600073ffffffffffffffffffffffffffffffffffffffff82169050919050565b6000819050919050565b82818337600083830152505050565b60005b83811015613fb8578082015181840152602081019050613f9d565b83811115613fc7576000848401525b50505050565bfe5b6000601f19601f8301169050919050565b613fe981613f17565b8114613ff457600080fd5b50565b61400081613f29565b811461400b57600080fd5b50565b61401781613f35565b811461402257600080fd5b50565b61402e81613f81565b811461403957600080fd5b5056fe456e756d657261626c655365743a20696e646578206f7574206f6620626f756e64734552433732313a207472616e7366657220746f206e6f6e20455243373231526563656976657220696d706c656d656e7465724f776e61626c653a206e6577206f776e657220697320746865207a65726f20616464726573734552433732313a207472616e7366657220746f20746865207a65726f2061646472657373416464726573733a20696e73756666696369656e742062616c616e636520666f722063616c6c4552433732313a206f70657261746f7220717565727920666f72206e6f6e6578697374656e7420746f6b656e4552433732313a20617070726f76652063616c6c6572206973206e6f74206f776e6572206e6f7220617070726f76656420666f7220616c6c4552433732313a2062616c616e636520717565727920666f7220746865207a65726f20616464726573734552433732313a206f776e657220717565727920666f72206e6f6e6578697374656e7420746f6b656e456e756d657261626c654d61703a20696e646578206f7574206f6620626f756e6473536166654d6174683a206d756c7469706c69636174696f6e206f766572666c6f774552433732313a20617070726f76656420717565727920666f72206e6f6e6578697374656e7420746f6b656e4552433732314d657461646174613a2055524920736574206f66206e6f6e6578697374656e7420746f6b656e43616c6c657220646f6573206e6f7420686176652041646d696e204163636573734552433732313a207472616e73666572206f6620746f6b656e2074686174206973206e6f74206f776e4552433732314d657461646174613a2055524920717565727920666f72206e6f6e6578697374656e7420746f6b656e4552433732313a20617070726f76616c20746f2063757272656e74206f776e65724552433732313a207472616e736665722063616c6c6572206973206e6f74206f776e6572206e6f7220617070726f766564a2646970667358221220649acc8252ca513338d504bbd5da50db160f466def83a99e3a67a6f5f7db1a2d64736f6c63430007060033",
  "linkReferences": {},
  "deployedLinkReferences": {}
}